{"abi":[{"type":"constructor","inputs":[{"name":"_erc721ETHTemplate","type":"address","internalType":"contract LSSVMPairERC721ETH"},{"name":"_erc721ERC20Template","type":"address","internalType":"contract LSSVMPairERC721ERC20"},{"name":"_erc1155ETHTemplate","type":"address","internalType":"contract LSSVMPairERC1155ETH"},{"name":"_erc1155ERC20Template","type":"address","internalType":"contract LSSVMPairERC1155ERC20"},{"name":"_protocolFeeRecipient","type":"address","internalType":"address payable"},{"name":"_protocolFeeMultiplier","type":"uint256","internalType":"uint256"},{"name":"_owner","type":"address","internalType":"address"}],"stateMutability":"nonpayable"},{"type":"receive","stateMutability":"payable"},{"type":"function","name":"authAllowedForToken","inputs":[{"name":"tokenAddress","type":"address","internalType":"address"},{"name":"proposedAuthAddress","type":"address","internalType":"address"}],"outputs":[{"name":"","type":"bool","internalType":"bool"}],"stateMutability":"view"},{"type":"function","name":"bondingCurveAllowed","inputs":[{"name":"","type":"address","internalType":"contract ICurve"}],"outputs":[{"name":"","type":"bool","internalType":"bool"}],"stateMutability":"view"},{"type":"function","name":"callAllowed","inputs":[{"name":"","type":"address","internalType":"address"}],"outputs":[{"name":"","type":"bool","internalType":"bool"}],"stateMutability":"view"},{"type":"function","name":"changeProtocolFeeMultiplier","inputs":[{"name":"_protocolFeeMultiplier","type":"uint256","internalType":"uint256"}],"outputs":[],"stateMutability":"nonpayable"},{"type":"function","name":"changeProtocolFeeRecipient","inputs":[{"name":"_protocolFeeRecipient","type":"address","internalType":"address payable"}],"outputs":[],"stateMutability":"nonpayable"},{"type":"function","name":"closeLock","inputs":[],"outputs":[],"stateMutability":"nonpayable"},{"type":"function","name":"createPairERC1155ERC20","inputs":[{"name":"params","type":"tuple","internalType":"struct LSSVMPairFactory.CreateERC1155ERC20PairParams","components":[{"name":"token","type":"address","internalType":"contract ERC20"},{"name":"nft","type":"address","internalType":"contract IERC1155"},{"name":"bondingCurve","type":"address","internalType":"contract ICurve"},{"name":"assetRecipient","type":"address","internalType":"address payable"},{"name":"poolType","type":"uint8","internalType":"enum LSSVMPair.PoolType"},{"name":"delta","type":"uint128","internalType":"uint128"},{"name":"fee","type":"uint96","internalType":"uint96"},{"name":"spotPrice","type":"uint128","internalType":"uint128"},{"name":"nftId","type":"uint256","internalType":"uint256"},{"name":"initialNFTBalance","type":"uint256","internalType":"uint256"},{"name":"initialTokenBalance","type":"uint256","internalType":"uint256"}]}],"outputs":[{"name":"pair","type":"address","internalType":"contract LSSVMPairERC1155ERC20"}],"stateMutability":"nonpayable"},{"type":"function","name":"createPairERC1155ETH","inputs":[{"name":"_nft","type":"address","internalType":"contract IERC1155"},{"name":"_bondingCurve","type":"address","internalType":"contract ICurve"},{"name":"_assetRecipient","type":"address","internalType":"address payable"},{"name":"_poolType","type":"uint8","internalType":"enum LSSVMPair.PoolType"},{"name":"_delta","type":"uint128","internalType":"uint128"},{"name":"_fee","type":"uint96","internalType":"uint96"},{"name":"_spotPrice","type":"uint128","internalType":"uint128"},{"name":"_nftId","type":"uint256","internalType":"uint256"},{"name":"_initialNFTBalance","type":"uint256","internalType":"uint256"}],"outputs":[{"name":"pair","type":"address","internalType":"contract LSSVMPairERC1155ETH"}],"stateMutability":"payable"},{"type":"function","name":"createPairERC721ERC20","inputs":[{"name":"params","type":"tuple","internalType":"struct LSSVMPairFactory.CreateERC721ERC20PairParams","components":[{"name":"token","type":"address","internalType":"contract ERC20"},{"name":"nft","type":"address","internalType":"contract IERC721"},{"name":"bondingCurve","type":"address","internalType":"contract ICurve"},{"name":"assetRecipient","type":"address","internalType":"address payable"},{"name":"poolType","type":"uint8","internalType":"enum LSSVMPair.PoolType"},{"name":"delta","type":"uint128","internalType":"uint128"},{"name":"fee","type":"uint96","internalType":"uint96"},{"name":"spotPrice","type":"uint128","internalType":"uint128"},{"name":"propertyChecker","type":"address","internalType":"address"},{"name":"initialNFTIDs","type":"uint256[]","internalType":"uint256[]"},{"name":"initialTokenBalance","type":"uint256","internalType":"uint256"}]}],"outputs":[{"name":"pair","type":"address","internalType":"contract LSSVMPairERC721ERC20"}],"stateMutability":"nonpayable"},{"type":"function","name":"createPairERC721ETH","inputs":[{"name":"_nft","type":"address","internalType":"contract IERC721"},{"name":"_bondingCurve","type":"address","internalType":"contract ICurve"},{"name":"_assetRecipient","type":"address","internalType":"address payable"},{"name":"_poolType","type":"uint8","internalType":"enum LSSVMPair.PoolType"},{"name":"_delta","type":"uint128","internalType":"uint128"},{"name":"_fee","type":"uint96","internalType":"uint96"},{"name":"_spotPrice","type":"uint128","internalType":"uint128"},{"name":"_propertyChecker","type":"address","internalType":"address"},{"name":"_initialNFTIDs","type":"uint256[]","internalType":"uint256[]"}],"outputs":[{"name":"pair","type":"address","internalType":"contract LSSVMPairERC721ETH"}],"stateMutability":"payable"},{"type":"function","name":"depositERC1155","inputs":[{"name":"nft","type":"address","internalType":"contract IERC1155"},{"name":"id","type":"uint256","internalType":"uint256"},{"name":"recipient","type":"address","internalType":"address"},{"name":"amount","type":"uint256","internalType":"uint256"}],"outputs":[],"stateMutability":"nonpayable"},{"type":"function","name":"depositERC20","inputs":[{"name":"token","type":"address","internalType":"contract ERC20"},{"name":"recipient","type":"address","internalType":"address"},{"name":"amount","type":"uint256","internalType":"uint256"}],"outputs":[],"stateMutability":"nonpayable"},{"type":"function","name":"depositNFTs","inputs":[{"name":"_nft","type":"address","internalType":"contract IERC721"},{"name":"ids","type":"uint256[]","internalType":"uint256[]"},{"name":"recipient","type":"address","internalType":"address"}],"outputs":[],"stateMutability":"nonpayable"},{"type":"function","name":"disableSettingsForPair","inputs":[{"name":"settings","type":"address","internalType":"address"},{"name":"pairAddress","type":"address","internalType":"address"}],"outputs":[],"stateMutability":"nonpayable"},{"type":"function","name":"enableSettingsForPair","inputs":[{"name":"settings","type":"address","internalType":"address"},{"name":"pairAddress","type":"address","internalType":"address"}],"outputs":[],"stateMutability":"nonpayable"},{"type":"function","name":"erc1155ERC20Template","inputs":[],"outputs":[{"name":"","type":"address","internalType":"contract LSSVMPairERC1155ERC20"}],"stateMutability":"view"},{"type":"function","name":"erc1155ETHTemplate","inputs":[],"outputs":[{"name":"","type":"address","internalType":"contract LSSVMPairERC1155ETH"}],"stateMutability":"view"},{"type":"function","name":"erc721ERC20Template","inputs":[],"outputs":[{"name":"","type":"address","internalType":"contract LSSVMPairERC721ERC20"}],"stateMutability":"view"},{"type":"function","name":"erc721ETHTemplate","inputs":[],"outputs":[{"name":"","type":"address","internalType":"contract LSSVMPairERC721ETH"}],"stateMutability":"view"},{"type":"function","name":"getPairNFTType","inputs":[{"name":"pairAddress","type":"address","internalType":"address"}],"outputs":[{"name":"","type":"uint8","internalType":"enum ILSSVMPairFactoryLike.PairNFTType"}],"stateMutability":"pure"},{"type":"function","name":"getPairTokenType","inputs":[{"name":"pairAddress","type":"address","internalType":"address"}],"outputs":[{"name":"","type":"uint8","internalType":"enum ILSSVMPairFactoryLike.PairTokenType"}],"stateMutability":"pure"},{"type":"function","name":"getSettingsForPair","inputs":[{"name":"pairAddress","type":"address","internalType":"address"}],"outputs":[{"name":"settingsEnabled","type":"bool","internalType":"bool"},{"name":"bps","type":"uint96","internalType":"uint96"}],"stateMutability":"view"},{"type":"function","name":"isValidPair","inputs":[{"name":"pairAddress","type":"address","internalType":"address"}],"outputs":[{"name":"","type":"bool","internalType":"bool"}],"stateMutability":"view"},{"type":"function","name":"openLock","inputs":[],"outputs":[],"stateMutability":"nonpayable"},{"type":"function","name":"owner","inputs":[],"outputs":[{"name":"","type":"address","internalType":"address"}],"stateMutability":"view"},{"type":"function","name":"protocolFeeMultiplier","inputs":[],"outputs":[{"name":"","type":"uint256","internalType":"uint256"}],"stateMutability":"view"},{"type":"function","name":"protocolFeeRecipient","inputs":[],"outputs":[{"name":"","type":"address","internalType":"address payable"}],"stateMutability":"view"},{"type":"function","name":"routerStatus","inputs":[{"name":"","type":"address","internalType":"contract LSSVMRouter"}],"outputs":[{"name":"allowed","type":"bool","internalType":"bool"},{"name":"wasEverTouched","type":"bool","internalType":"bool"}],"stateMutability":"view"},{"type":"function","name":"setBondingCurveAllowed","inputs":[{"name":"bondingCurve","type":"address","internalType":"contract ICurve"},{"name":"isAllowed","type":"bool","internalType":"bool"}],"outputs":[],"stateMutability":"nonpayable"},{"type":"function","name":"setCallAllowed","inputs":[{"name":"target","type":"address","internalType":"address payable"},{"name":"isAllowed","type":"bool","internalType":"bool"}],"outputs":[],"stateMutability":"nonpayable"},{"type":"function","name":"setRouterAllowed","inputs":[{"name":"_router","type":"address","internalType":"contract LSSVMRouter"},{"name":"isAllowed","type":"bool","internalType":"bool"}],"outputs":[],"stateMutability":"nonpayable"},{"type":"function","name":"settingsForCollection","inputs":[{"name":"","type":"address","internalType":"address"},{"name":"","type":"address","internalType":"address"}],"outputs":[{"name":"","type":"bool","internalType":"bool"}],"stateMutability":"view"},{"type":"function","name":"settingsForPair","inputs":[{"name":"","type":"address","internalType":"address"}],"outputs":[{"name":"","type":"address","internalType":"address"}],"stateMutability":"view"},{"type":"function","name":"toggleSettingsForCollection","inputs":[{"name":"settings","type":"address","internalType":"address"},{"name":"collectionAddress","type":"address","internalType":"address"},{"name":"enable","type":"bool","internalType":"bool"}],"outputs":[],"stateMutability":"nonpayable"},{"type":"function","name":"transferOwnership","inputs":[{"name":"newOwner","type":"address","internalType":"address"}],"outputs":[],"stateMutability":"nonpayable"},{"type":"function","name":"withdrawERC20ProtocolFees","inputs":[{"name":"token","type":"address","internalType":"contract ERC20"},{"name":"amount","type":"uint256","internalType":"uint256"}],"outputs":[],"stateMutability":"nonpayable"},{"type":"function","name":"withdrawETHProtocolFees","inputs":[],"outputs":[],"stateMutability":"nonpayable"},{"type":"event","name":"BondingCurveStatusUpdate","inputs":[{"name":"bondingCurve","type":"address","indexed":true,"internalType":"contract ICurve"},{"name":"isAllowed","type":"bool","indexed":false,"internalType":"bool"}],"anonymous":false},{"type":"event","name":"CallTargetStatusUpdate","inputs":[{"name":"target","type":"address","indexed":true,"internalType":"address"},{"name":"isAllowed","type":"bool","indexed":false,"internalType":"bool"}],"anonymous":false},{"type":"event","name":"ERC1155Deposit","inputs":[{"name":"poolAddress","type":"address","indexed":true,"internalType":"address"},{"name":"id","type":"uint256","indexed":true,"internalType":"uint256"},{"name":"amount","type":"uint256","indexed":false,"internalType":"uint256"}],"anonymous":false},{"type":"event","name":"ERC20Deposit","inputs":[{"name":"poolAddress","type":"address","indexed":true,"internalType":"address"},{"name":"amount","type":"uint256","indexed":false,"internalType":"uint256"}],"anonymous":false},{"type":"event","name":"NFTDeposit","inputs":[{"name":"poolAddress","type":"address","indexed":true,"internalType":"address"},{"name":"ids","type":"uint256[]","indexed":false,"internalType":"uint256[]"}],"anonymous":false},{"type":"event","name":"NewERC1155Pair","inputs":[{"name":"poolAddress","type":"address","indexed":true,"internalType":"address"},{"name":"initialBalance","type":"uint256","indexed":false,"internalType":"uint256"}],"anonymous":false},{"type":"event","name":"NewERC721Pair","inputs":[{"name":"poolAddress","type":"address","indexed":true,"internalType":"address"},{"name":"initialIds","type":"uint256[]","indexed":false,"internalType":"uint256[]"}],"anonymous":false},{"type":"event","name":"OwnershipTransferred","inputs":[{"name":"user","type":"address","indexed":true,"internalType":"address"},{"name":"newOwner","type":"address","indexed":true,"internalType":"address"}],"anonymous":false},{"type":"event","name":"ProtocolFeeMultiplierUpdate","inputs":[{"name":"newMultiplier","type":"uint256","indexed":false,"internalType":"uint256"}],"anonymous":false},{"type":"event","name":"ProtocolFeeRecipientUpdate","inputs":[{"name":"recipientAddress","type":"address","indexed":true,"internalType":"address"}],"anonymous":false},{"type":"event","name":"RouterStatusUpdate","inputs":[{"name":"router","type":"address","indexed":true,"internalType":"contract LSSVMRouter"},{"name":"isAllowed","type":"bool","indexed":false,"internalType":"bool"}],"anonymous":false},{"type":"error","name":"LSSVMPairFactory__BondingCurveNotWhitelisted","inputs":[]},{"type":"error","name":"LSSVMPairFactory__CannotCallRouter","inputs":[]},{"type":"error","name":"LSSVMPairFactory__FeeTooLarge","inputs":[]},{"type":"error","name":"LSSVMPairFactory__InvalidPair","inputs":[]},{"type":"error","name":"LSSVMPairFactory__ReentrantCall","inputs":[]},{"type":"error","name":"LSSVMPairFactory__SettingsNotEnabledForCollection","inputs":[]},{"type":"error","name":"LSSVMPairFactory__SettingsNotEnabledForPair","inputs":[]},{"type":"error","name":"LSSVMPairFactory__UnauthorizedCaller","inputs":[]},{"type":"error","name":"LSSVMPairFactory__ZeroAddress","inputs":[]}],"bytecode":{"object":"0x610100604052348015610010575f80fd5b5060405161463138038061463183398101604081905261002f91610110565b5f80546001600160a01b0319166001600160a01b03831690811782556040518392907f8be0079c531659141344cd1fd0a4f28419497f9722a3daafe3b4186f6b6457e0908290a3506001600160a01b0387811660805286811660a05285811660c05284811660e052600180546001600160a01b03191691851691909117905567016345785d8a00008211156100d757604051637efc1afd60e11b815260040160405180910390fd5b506002555050600880546001600160a01b03191660011790555061019d915050565b6001600160a01b038116811461010d575f80fd5b50565b5f805f805f805f60e0888a031215610126575f80fd5b8751610131816100f9565b6020890151909750610142816100f9565b6040890151909650610153816100f9565b6060890151909550610164816100f9565b6080890151909450610175816100f9565b60a089015160c08a0151919450925061018d816100f9565b8091505092959891949750929550565b60805160a05160c05160e0516144296102085f395f81816103e7015281816117490152612a8e01525f81816107f201528181611555015261170501525f81816106dd015281816116c1015261186401525f818161072f0152818161139f015261167d01526144295ff3fe608060405260043610610260575f3560e01c806396b182be1161014b578063c2bcf599116100c6578063d83ff79c1161007c578063ebd0f69311610062578063ebd0f693146107a3578063f2fde38b146107c2578063ffb699ce146107e1575f80fd5b8063d83ff79c14610770578063ea3ec18c14610784575f80fd5b8063cc5bc20b116100ac578063cc5bc20b146106ff578063d245fde61461071e578063d397516d14610751575f80fd5b8063c2bcf599146106ad578063ca4b6eb8146106cc575f80fd5b8063a68e7bcb1161011b578063a93ec68b11610101578063a93ec68b1461062c578063a9c252671461067a578063b483eddc14610699575f80fd5b8063a68e7bcb146105c5578063a82719c8146105fe575f80fd5b806396b182be146105275780639b395730146105465780639c3c11d214610565578063a01080cd14610584575f80fd5b80635240c830116101db57806382c1b8ff116101ab5780638da5cb5b116101915780638da5cb5b146104ca5780638e0fabc5146104f55780639294118c14610508575f80fd5b806382c1b8ff1461049857806386aa8360146104ab575f80fd5b80635240c830146103d657806364df049e1461042e5780636c19cb6a1461045a5780636cc88edb14610479575f80fd5b80631ce4c78b116102305780632cdb394b116102165780632cdb394b146103795780634bf107c114610398578063514f0330146103b7575f80fd5b80631ce4c78b146103185780631fba95e81461033b575f80fd5b806305070c691461026b5780630b898493146102a05780630e4860df146102e35780631cad5a40146102f9575f80fd5b3661026757005b5f80fd5b348015610276575f80fd5b5061028a610285366004613c52565b610814565b6040516102979190613ccf565b60405180910390f35b3480156102ab575f80fd5b506102bf6102ba366004613c52565b6108be565b6040805192151583526bffffffffffffffffffffffff909116602083015201610297565b3480156102ee575f80fd5b506102f7610990565b005b348015610304575f80fd5b506102f7610313366004613ce2565b610a0f565b348015610323575f80fd5b5061032d60025481565b604051908152602001610297565b348015610346575f80fd5b50610369610355366004613c52565b60046020525f908152604090205460ff1681565b6040519015158152602001610297565b348015610384575f80fd5b506102f7610393366004613d68565b610b69565b3480156103a3575f80fd5b506102f76103b2366004613dd9565b610d57565b3480156103c2575f80fd5b506102f76103d1366004613c52565b610e66565b3480156103e1575f80fd5b506104097f000000000000000000000000000000000000000000000000000000000000000081565b60405173ffffffffffffffffffffffffffffffffffffffff9091168152602001610297565b348015610439575f80fd5b506001546104099073ffffffffffffffffffffffffffffffffffffffff1681565b348015610465575f80fd5b506102f7610474366004613e10565b610fa1565b348015610484575f80fd5b506102f7610493366004613dd9565b611164565b6104096104a6366004613e82565b611312565b3480156104b6575f80fd5b5061028a6104c5366004613c52565b611439565b3480156104d5575f80fd5b505f546104099073ffffffffffffffffffffffffffffffffffffffff1681565b610409610503366004613f52565b6114c8565b348015610513575f80fd5b50610369610522366004613c52565b6115ee565b348015610532575f80fd5b50610409610541366004614008565b611776565b348015610551575f80fd5b506102f761056036600461403a565b61196d565b348015610570575f80fd5b506102f761057f366004614082565b611a6e565b34801561058f575f80fd5b5061040961059e366004613c52565b60066020525f908152604090205473ffffffffffffffffffffffffffffffffffffffff1681565b3480156105d0575f80fd5b506103696105df366004613e10565b600560209081525f928352604080842090915290825290205460ff1681565b348015610609575f80fd5b50610369610618366004613c52565b60036020525f908152604090205460ff1681565b348015610637575f80fd5b50610663610646366004613c52565b60076020525f908152604090205460ff8082169161010090041682565b604080519215158352901515602083015201610297565b348015610685575f80fd5b506102f7610694366004614099565b611b6b565b3480156106a4575f80fd5b506102f7611da7565b3480156106b8575f80fd5b506102f76106c7366004613e10565b611e4c565b3480156106d7575f80fd5b506104097f000000000000000000000000000000000000000000000000000000000000000081565b34801561070a575f80fd5b506102f76107193660046140de565b612094565b348015610729575f80fd5b506104097f000000000000000000000000000000000000000000000000000000000000000081565b34801561075c575f80fd5b5061036961076b366004613e10565b61213f565b34801561077b575f80fd5b506102f761292e565b34801561078f575f80fd5b5061040961079e366004614108565b6129ac565b3480156107ae575f80fd5b506102f76107bd366004613dd9565b612b81565b3480156107cd575f80fd5b506102f76107dc366004613c52565b612ced565b3480156107ec575f80fd5b506104097f000000000000000000000000000000000000000000000000000000000000000081565b5f808273ffffffffffffffffffffffffffffffffffffffff16633053fc586040518163ffffffff1660e01b8152600401602060405180830381865afa15801561085f573d5f803e3d5ffd5b505050506040513d601f19601f820116820180604052508101906108839190614123565b9050600281600381111561089957610899613c6d565b6108a3919061416e565b60ff1660018111156108b7576108b7613c6d565b9392505050565b73ffffffffffffffffffffffffffffffffffffffff8082165f908152600660205260408120549091829116806108f957505f93849350915050565b6040517f376a06f400000000000000000000000000000000000000000000000000000000815273ffffffffffffffffffffffffffffffffffffffff858116600483015282169063376a06f4906024016040805180830381865afa158015610962573d5f803e3d5ffd5b505050506040513d601f19601f82011682018060405250810190610986919061418f565b9250925050915091565b6008543373ffffffffffffffffffffffffffffffffffffffff909116036109e3576040517fe4cf332400000000000000000000000000000000000000000000000000000000815260040160405180910390fd5b600880547fffffffffffffffffffffffff00000000000000000000000000000000000000001633179055565b805f03610a1b57505050565b610a3d73ffffffffffffffffffffffffffffffffffffffff8416338484612ddc565b610a46826115ee565b8015610a6b57506001610a5883610814565b6001811115610a6957610a69613c6d565b145b8015610b0e57508173ffffffffffffffffffffffffffffffffffffffff1663fc0c546a6040518163ffffffff1660e01b8152600401602060405180830381865afa158015610abb573d5f803e3d5ffd5b505050506040513d601f19601f82011682018060405250810190610adf91906141bc565b73ffffffffffffffffffffffffffffffffffffffff168373ffffffffffffffffffffffffffffffffffffffff16145b15610b64578173ffffffffffffffffffffffffffffffffffffffff167fc5a9c13052901cb7714b549fb3e30327a1049e8a6a814847fc70293cc6dec74782604051610b5b91815260200190565b60405180910390a25b505050565b815f819003610b785750610d51565b5f5b81811015610c4c578573ffffffffffffffffffffffffffffffffffffffff166323b872dd3385888886818110610bb257610bb26141d7565b6040517fffffffff0000000000000000000000000000000000000000000000000000000060e088901b16815273ffffffffffffffffffffffffffffffffffffffff9586166004820152949093166024850152506020909102013560448201526064015f604051808303815f87803b158015610c2b575f80fd5b505af1158015610c3d573d5f803e3d5ffd5b50505050806001019050610b7a565b50610c56826115ee565b8015610cf957508173ffffffffffffffffffffffffffffffffffffffff166347ccca026040518163ffffffff1660e01b8152600401602060405180830381865afa158015610ca6573d5f803e3d5ffd5b505050506040513d601f19601f82011682018060405250810190610cca91906141bc565b73ffffffffffffffffffffffffffffffffffffffff168573ffffffffffffffffffffffffffffffffffffffff16145b15610d4f578173ffffffffffffffffffffffffffffffffffffffff167f232f0dddad405387becb8c1dd6afed4c32d6ce5d66105ebbbe38bc27c6843f638585604051610d46929190614204565b60405180910390a25b505b50505050565b5f5473ffffffffffffffffffffffffffffffffffffffff163314610ddc576040517f08c379a000000000000000000000000000000000000000000000000000000000815260206004820152600c60248201527f554e415554484f52495a4544000000000000000000000000000000000000000060448201526064015b60405180910390fd5b73ffffffffffffffffffffffffffffffffffffffff82165f8181526003602090815260409182902080547fffffffffffffffffffffffffffffffffffffffffffffffffffffffffffffff001685151590811790915591519182527f1da28d127ec72d2dde6a533c98857664b25cd827680fb1f39f57394c2b444d9191015b60405180910390a25050565b5f5473ffffffffffffffffffffffffffffffffffffffff163314610ee6576040517f08c379a000000000000000000000000000000000000000000000000000000000815260206004820152600c60248201527f554e415554484f52495a454400000000000000000000000000000000000000006044820152606401610dd3565b73ffffffffffffffffffffffffffffffffffffffff8116610f33576040517fea1fd72b00000000000000000000000000000000000000000000000000000000815260040160405180910390fd5b600180547fffffffffffffffffffffffff00000000000000000000000000000000000000001673ffffffffffffffffffffffffffffffffffffffff83169081179091556040517fceec08a75d1f3b12c14c6cdc16c081aec1c401c2eac1d8c6ea91e9d73b929211905f90a250565b610faa816115ee565b610fe0576040517f5c77605d00000000000000000000000000000000000000000000000000000000815260040160405180910390fd5b73ffffffffffffffffffffffffffffffffffffffff8181165f90815260066020526040902054811690831614611042576040517f5192eea700000000000000000000000000000000000000000000000000000000815260040160405180910390fd5b5f8190503373ffffffffffffffffffffffffffffffffffffffff168173ffffffffffffffffffffffffffffffffffffffff16638da5cb5b6040518163ffffffff1660e01b8152600401602060405180830381865afa1580156110a6573d5f803e3d5ffd5b505050506040513d601f19601f820116820180604052508101906110ca91906141bc565b73ffffffffffffffffffffffffffffffffffffffff1614611117576040517f79c9f4d400000000000000000000000000000000000000000000000000000000815260040160405180910390fd5b5073ffffffffffffffffffffffffffffffffffffffff165f90815260066020526040902080547fffffffffffffffffffffffff000000000000000000000000000000000000000016905550565b5f5473ffffffffffffffffffffffffffffffffffffffff1633146111e4576040517f08c379a000000000000000000000000000000000000000000000000000000000815260206004820152600c60248201527f554e415554484f52495a454400000000000000000000000000000000000000006044820152606401610dd3565b80156112495773ffffffffffffffffffffffffffffffffffffffff82165f9081526004602052604090205460ff1615611249576040517f15f716e400000000000000000000000000000000000000000000000000000000815260040160405180910390fd5b6040805180820182528215158082526001602080840191825273ffffffffffffffffffffffffffffffffffffffff87165f818152600783528690209451855493517fffffffffffffffffffffffffffffffffffffffffffffffffffffffffffff00009094169015157fffffffffffffffffffffffffffffffffffffffffffffffffffffffffffff00ff1617610100931515939093029290921790935592519081527f24e274cfd23919da24a57044266685f5474338837aecdcca3136b2102f78fee59101610e5a565b73ffffffffffffffffffffffffffffffffffffffff89165f9081526003602052604081205460ff16611370576040517f2d9f70cc00000000000000000000000000000000000000000000000000000000815260040160405180910390fd5b6113c9308b8d8b600281111561138857611388613c6d565b73ffffffffffffffffffffffffffffffffffffffff7f0000000000000000000000000000000000000000000000000000000000000000169392919089612ecf565b90506113db818c8b8a8a8a8989612f60565b8073ffffffffffffffffffffffffffffffffffffffff167fe8e1cee58c33f242c87d563bbc00f2ac82eb90f10a252b0ba8498ae6c1dc241a8484604051611423929190614204565b60405180910390a29a9950505050505050505050565b5f808273ffffffffffffffffffffffffffffffffffffffff16633053fc586040518163ffffffff1660e01b8152600401602060405180830381865afa158015611484573d5f803e3d5ffd5b505050506040513d601f19601f820116820180604052508101906114a89190614123565b905060028160038111156114be576114be613c6d565b6108a39190614254565b73ffffffffffffffffffffffffffffffffffffffff88165f9081526003602052604081205460ff16611526576040517f2d9f70cc00000000000000000000000000000000000000000000000000000000815260040160405180910390fd5b61157f308a8c8a600281111561153e5761153e613c6d565b73ffffffffffffffffffffffffffffffffffffffff7f000000000000000000000000000000000000000000000000000000000000000016939291908861311e565b9050611591818b8a89898989896131ac565b8073ffffffffffffffffffffffffffffffffffffffff167f2966b6b401975e778520aec46cbefbe73799119a5670feda3e8f884c7c3ffb11836040516115d991815260200190565b60405180910390a29998505050505050505050565b5f808273ffffffffffffffffffffffffffffffffffffffff16633053fc586040518163ffffffff1660e01b8152600401602060405180830381865afa158015611639573d5f803e3d5ffd5b505050506040513d601f19601f8201168201806040525081019061165d9190614123565b90505f81600381111561167257611672613c6d565b036116a2576108b7307f00000000000000000000000000000000000000000000000000000000000000008561332c565b60018160038111156116b6576116b6613c6d565b036116e6576108b7307f0000000000000000000000000000000000000000000000000000000000000000856133bd565b60028160038111156116fa576116fa613c6d565b0361172a576108b7307f00000000000000000000000000000000000000000000000000000000000000008561344e565b600381600381111561173e5761173e613c6d565b0361176e576108b7307f0000000000000000000000000000000000000000000000000000000000000000856134df565b505f92915050565b5f60038161178a6060850160408601613c52565b73ffffffffffffffffffffffffffffffffffffffff16815260208101919091526040015f205460ff166117e9576040517f2d9f70cc00000000000000000000000000000000000000000000000000000000815260040160405180910390fd5b61188f306117fd6060850160408601613c52565b61180d6040860160208701613c52565b61181d60a0870160808801614275565b600281111561182e5761182e613c6d565b61184061012088016101008901613c52565b61184d6020890189613c52565b73ffffffffffffffffffffffffffffffffffffffff7f000000000000000000000000000000000000000000000000000000000000000016959493929190613570565b905061190c816118a26020850185613c52565b6118b26040860160208701613c52565b6118c26080870160608801613c52565b6118d260c0880160a0890161428e565b6118e260e0890160c08a016142a7565b6118f36101008a0160e08b0161428e565b6119016101208b018b6142c2565b8b610140013561360b565b73ffffffffffffffffffffffffffffffffffffffff81167fe8e1cee58c33f242c87d563bbc00f2ac82eb90f10a252b0ba8498ae6c1dc241a6119526101208501856142c2565b604051611960929190614204565b60405180910390a2919050565b611977823361213f565b6119ad576040517f79c9f4d400000000000000000000000000000000000000000000000000000000815260040160405180910390fd5b8015611a125773ffffffffffffffffffffffffffffffffffffffff8083165f90815260056020908152604080832093871683529290522080547fffffffffffffffffffffffffffffffffffffffffffffffffffffffffffffff00166001179055505050565b73ffffffffffffffffffffffffffffffffffffffff8083165f90815260056020908152604080832093871683529290522080547fffffffffffffffffffffffffffffffffffffffffffffffffffffffffffffff00169055505050565b5f5473ffffffffffffffffffffffffffffffffffffffff163314611aee576040517f08c379a000000000000000000000000000000000000000000000000000000000815260206004820152600c60248201527f554e415554484f52495a454400000000000000000000000000000000000000006044820152606401610dd3565b67016345785d8a0000811115611b30576040517ffdf835fa00000000000000000000000000000000000000000000000000000000815260040160405180910390fd5b60028190556040518181527f7c5d30e0df5c540841a598b27bd89807223a2e6348125bb4aa74f1a8cb9ce7689060200160405180910390a150565b8015610d5157604080516020810182525f815290517ff242432a00000000000000000000000000000000000000000000000000000000815273ffffffffffffffffffffffffffffffffffffffff86169163f242432a91611bd691339187918991889190600401614326565b5f604051808303815f87803b158015611bed575f80fd5b505af1158015611bff573d5f803e3d5ffd5b50505050611c0c826115ee565b8015611c3157506001611c1e83611439565b6001811115611c2f57611c2f613c6d565b145b8015611cd457508173ffffffffffffffffffffffffffffffffffffffff166347ccca026040518163ffffffff1660e01b8152600401602060405180830381865afa158015611c81573d5f803e3d5ffd5b505050506040513d601f19601f82011682018060405250810190611ca591906141bc565b73ffffffffffffffffffffffffffffffffffffffff168473ffffffffffffffffffffffffffffffffffffffff16145b8015611d4b57508173ffffffffffffffffffffffffffffffffffffffff1663c6bc51826040518163ffffffff1660e01b8152600401602060405180830381865afa158015611d24573d5f803e3d5ffd5b505050506040513d601f19601f82011682018060405250810190611d4891906143c1565b83145b15610d5157828273ffffffffffffffffffffffffffffffffffffffff167fd9d59b1027358505410c5d75718be0c5f30233b2c78ce49b8951d7d0f99fa67583604051611d9991815260200190565b60405180910390a350505050565b5f5473ffffffffffffffffffffffffffffffffffffffff163314611e27576040517f08c379a000000000000000000000000000000000000000000000000000000000815260206004820152600c60248201527f554e415554484f52495a454400000000000000000000000000000000000000006044820152606401610dd3565b600154611e4a9073ffffffffffffffffffffffffffffffffffffffff16476137bf565b565b611e55816115ee565b611e8b576040517f5c77605d00000000000000000000000000000000000000000000000000000000815260040160405180910390fd5b5f8190503373ffffffffffffffffffffffffffffffffffffffff168173ffffffffffffffffffffffffffffffffffffffff16638da5cb5b6040518163ffffffff1660e01b8152600401602060405180830381865afa158015611eef573d5f803e3d5ffd5b505050506040513d601f19601f82011682018060405250810190611f1391906141bc565b73ffffffffffffffffffffffffffffffffffffffff1614611f60576040517f79c9f4d400000000000000000000000000000000000000000000000000000000815260040160405180910390fd5b60055f8273ffffffffffffffffffffffffffffffffffffffff166347ccca026040518163ffffffff1660e01b8152600401602060405180830381865afa158015611fac573d5f803e3d5ffd5b505050506040513d601f19601f82011682018060405250810190611fd091906141bc565b73ffffffffffffffffffffffffffffffffffffffff908116825260208083019390935260409182015f9081209187168152925290205460ff1661203f576040517f567a18b000000000000000000000000000000000000000000000000000000000815260040160405180910390fd5b5073ffffffffffffffffffffffffffffffffffffffff9081165f9081526006602052604090208054919092167fffffffffffffffffffffffff0000000000000000000000000000000000000000909116179055565b5f5473ffffffffffffffffffffffffffffffffffffffff163314612114576040517f08c379a000000000000000000000000000000000000000000000000000000000815260206004820152600c60248201527f554e415554484f52495a454400000000000000000000000000000000000000006044820152606401610dd3565b60015461213b9073ffffffffffffffffffffffffffffffffffffffff848116911683613831565b5050565b5f61216a837f553e757e00000000000000000000000000000000000000000000000000000000613908565b80156121ff57506040517f24d7806c00000000000000000000000000000000000000000000000000000000815273ffffffffffffffffffffffffffffffffffffffff83811660048301528416906324d7806c90602401602060405180830381865afa1580156121db573d5f803e3d5ffd5b505050506040513d601f19601f820116820180604052508101906121ff91906143d8565b1561220c57506001612928565b8273ffffffffffffffffffffffffffffffffffffffff16638da5cb5b6040518163ffffffff1660e01b8152600401602060405180830381865afa925050508015612291575060408051601f3d9081017fffffffffffffffffffffffffffffffffffffffffffffffffffffffffffffffe016820190925261228e918101906141bc565b60015b156123bc578273ffffffffffffffffffffffffffffffffffffffff168173ffffffffffffffffffffffffffffffffffffffff16036122d3576001915050612928565b73ffffffffffffffffffffffffffffffffffffffff81163b156123ba578073ffffffffffffffffffffffffffffffffffffffff16638da5cb5b6040518163ffffffff1660e01b8152600401602060405180830381865afa925050508015612375575060408051601f3d9081017fffffffffffffffffffffffffffffffffffffffffffffffffffffffffffffffe0168201909252612372918101906141bc565b60015b156123ba578373ffffffffffffffffffffffffffffffffffffffff168173ffffffffffffffffffffffffffffffffffffffff16036123b857600192505050612928565b505b505b6040517f91d148540000000000000000000000000000000000000000000000000000000081525f600482015273ffffffffffffffffffffffffffffffffffffffff83811660248301528416906391d1485490604401602060405180830381865afa925050508015612468575060408051601f3d9081017fffffffffffffffffffffffffffffffffffffffffffffffffffffffffffffffe0168201909252612465918101906143d8565b60015b1561247f57801561247d576001915050612928565b505b8273ffffffffffffffffffffffffffffffffffffffff1663be772d4c6040518163ffffffff1660e01b8152600401602060405180830381865afa925050508015612504575060408051601f3d9081017fffffffffffffffffffffffffffffffffffffffffffffffffffffffffffffffe0168201909252612501918101906141bc565b60015b156125c9576040517fe37ce6fa00000000000000000000000000000000000000000000000000000000815273ffffffffffffffffffffffffffffffffffffffff848116600483015282169063e37ce6fa90602401602060405180830381865afa9250505080156125af575060408051601f3d9081017fffffffffffffffffffffffffffffffffffffffffffffffffffffffffffffffe01682019092526125ac918101906143d8565b60015b156125c75780156125c557600192505050612928565b505b505b8273ffffffffffffffffffffffffffffffffffffffff1663f7a2da236040518163ffffffff1660e01b8152600401602060405180830381865afa92505050801561264e575060408051601f3d9081017fffffffffffffffffffffffffffffffffffffffffffffffffffffffffffffffe016820190925261264b918101906141bc565b60015b15612713576040517f24d7806c00000000000000000000000000000000000000000000000000000000815273ffffffffffffffffffffffffffffffffffffffff84811660048301528216906324d7806c90602401602060405180830381865afa9250505080156126f9575060408051601f3d9081017fffffffffffffffffffffffffffffffffffffffffffffffffffffffffffffffe01682019092526126f6918101906143d8565b60015b1561271157801561270f57600192505050612928565b505b505b8273ffffffffffffffffffffffffffffffffffffffff1663748365ef6040518163ffffffff1660e01b8152600401602060405180830381865afa925050508015612798575060408051601f3d9081017fffffffffffffffffffffffffffffffffffffffffffffffffffffffffffffffe0168201909252612795918101906141bc565b60015b1561285d576040517fc395fcb300000000000000000000000000000000000000000000000000000000815273ffffffffffffffffffffffffffffffffffffffff848116600483015282169063c395fcb390602401602060405180830381865afa925050508015612843575060408051601f3d9081017fffffffffffffffffffffffffffffffffffffffffffffffffffffffffffffffe0168201909252612840918101906143d8565b60015b1561285b57801561285957600192505050612928565b505b505b8273ffffffffffffffffffffffffffffffffffffffff1663f851a4406040518163ffffffff1660e01b8152600401602060405180830381865afa9250505080156128e2575060408051601f3d9081017fffffffffffffffffffffffffffffffffffffffffffffffffffffffffffffffe01682019092526128df918101906141bc565b60015b1561176e578273ffffffffffffffffffffffffffffffffffffffff168173ffffffffffffffffffffffffffffffffffffffff1603612924576001915050612928565b50505f5b92915050565b60085473ffffffffffffffffffffffffffffffffffffffff16331461297f576040517fe4cf332400000000000000000000000000000000000000000000000000000000815260040160405180910390fd5b600880547fffffffffffffffffffffffff0000000000000000000000000000000000000000166001179055565b5f6003816129c06060850160408601613c52565b73ffffffffffffffffffffffffffffffffffffffff16815260208101919091526040015f205460ff16612a1f576040517f2d9f70cc00000000000000000000000000000000000000000000000000000000815260040160405180910390fd5b612ab930612a336060850160408601613c52565b612a436040860160208701613c52565b612a5360a0870160808801614275565b6002811115612a6457612a64613c6d565b610100870135612a776020890189613c52565b73ffffffffffffffffffffffffffffffffffffffff7f000000000000000000000000000000000000000000000000000000000000000016959493929190613923565b9050612b3481612acc6020850185613c52565b612adc6040860160208701613c52565b612aec6080870160608801613c52565b612afc60c0880160a0890161428e565b612b0c60e0890160c08a016142a7565b612b1d6101008a0160e08b0161428e565b8961010001358a61012001358b61014001356139bb565b8073ffffffffffffffffffffffffffffffffffffffff167f2966b6b401975e778520aec46cbefbe73799119a5670feda3e8f884c7c3ffb1183610120013560405161196091815260200190565b5f5473ffffffffffffffffffffffffffffffffffffffff163314612c01576040517f08c379a000000000000000000000000000000000000000000000000000000000815260206004820152600c60248201527f554e415554484f52495a454400000000000000000000000000000000000000006044820152606401610dd3565b8015612c6b5773ffffffffffffffffffffffffffffffffffffffff82165f90815260076020526040902054610100900460ff1615612c6b576040517f15f716e400000000000000000000000000000000000000000000000000000000815260040160405180910390fd5b73ffffffffffffffffffffffffffffffffffffffff82165f8181526004602090815260409182902080547fffffffffffffffffffffffffffffffffffffffffffffffffffffffffffffff001685151590811790915591519182527fab2e2e8d21d5efbffb30945e9b6ee1fb43620ef65a228f871f5028bf8a6e004a9101610e5a565b5f5473ffffffffffffffffffffffffffffffffffffffff163314612d6d576040517f08c379a000000000000000000000000000000000000000000000000000000000815260206004820152600c60248201527f554e415554484f52495a454400000000000000000000000000000000000000006044820152606401610dd3565b5f80547fffffffffffffffffffffffff00000000000000000000000000000000000000001673ffffffffffffffffffffffffffffffffffffffff83169081178255604051909133917f8be0079c531659141344cd1fd0a4f28419497f9722a3daafe3b4186f6b6457e09190a350565b5f6040517f23b872dd00000000000000000000000000000000000000000000000000000000815273ffffffffffffffffffffffffffffffffffffffff8516600482015273ffffffffffffffffffffffffffffffffffffffff8416602482015282604482015260205f6064835f8a5af191505080601f3d1160015f511416151615612e685750833b153d17155b80610d4f576040517f08c379a000000000000000000000000000000000000000000000000000000000815260206004820152601460248201527f5452414e534645525f46524f4d5f4641494c45440000000000000000000000006044820152606401610dd3565b5f6040517f60863d8160093d39f33d3d3d3d363d3d37605160353639366051013d7300000081528760601b601d8201527f5af43d3d93803e603357fd5bf30000000000000000000000000000000000000060318201528660601b603e8201528560601b60528201528460601b606682015283607a8201538260601b607b820152608f815ff098975050505050505050565b6040517ffd17aef900000000000000000000000000000000000000000000000000000000815233600482015273ffffffffffffffffffffffffffffffffffffffff87811660248301526fffffffffffffffffffffffffffffffff80881660448401526bffffffffffffffffffffffff871660648401528516608483015289169063fd17aef99060a4015f604051808303815f87803b158015613000575f80fd5b505af1158015613012573d5f803e3d5ffd5b50505050345f1461303d5761303d73ffffffffffffffffffffffffffffffffffffffff8916346137bf565b805f5b81811015613112578873ffffffffffffffffffffffffffffffffffffffff166323b872dd338c878786818110613078576130786141d7565b6040517fffffffff0000000000000000000000000000000000000000000000000000000060e088901b16815273ffffffffffffffffffffffffffffffffffffffff9586166004820152949093166024850152506020909102013560448201526064015f604051808303815f87803b1580156130f1575f80fd5b505af1158015613103573d5f803e3d5ffd5b50505050806001019050613040565b50505050505050505050565b5f6040517f60923d8160093d39f33d3d3d3d363d3d37605d6035363936605d013d7300000081528760601b601d8201527f5af43d3d93803e603357fd5bf30000000000000000000000000000000000000060318201528660601b603e8201528560601b60528201528460601b606682015283607a82015382607b820152609b815ff098975050505050505050565b6040517ffd17aef900000000000000000000000000000000000000000000000000000000815233600482015273ffffffffffffffffffffffffffffffffffffffff87811660248301526fffffffffffffffffffffffffffffffff80881660448401526bffffffffffffffffffffffff871660648401528516608483015289169063fd17aef99060a4015f604051808303815f87803b15801561324c575f80fd5b505af115801561325e573d5f803e3d5ffd5b50505050345f146132895761328973ffffffffffffffffffffffffffffffffffffffff8916346137bf565b801561332257604080516020810182525f815290517ff242432a00000000000000000000000000000000000000000000000000000000815273ffffffffffffffffffffffffffffffffffffffff89169163f242432a916132f49133918d918891889190600401614326565b5f604051808303815f87803b15801561330b575f80fd5b505af115801561331d573d5f803e3d5ffd5b505050505b5050505050505050565b5f6040517f3d3d3d3d363d3d37605160353639366051013d7300000000000000000000000081528360601b60148201527f5af43d3d93803e603357fd5bf30000000000000000000000000000000000000060288201528460601b60358201526049810160495f82863c6029810151602983015114602082015160208401511416815183511416925050509392505050565b5f6040517f3d3d3d3d363d3d37606560353639366065013d7300000000000000000000000081528360601b60148201527f5af43d3d93803e603357fd5bf30000000000000000000000000000000000000060288201528460601b60358201526049810160495f82863c6029810151602983015114602082015160208401511416815183511416925050509392505050565b5f6040517f3d3d3d3d363d3d37605d6035363936605d013d7300000000000000000000000081528360601b60148201527f5af43d3d93803e603357fd5bf30000000000000000000000000000000000000060288201528460601b60358201526049810160495f82863c6029810151602983015114602082015160208401511416815183511416925050509392505050565b5f6040517f3d3d3d3d363d3d37607160353639366071013d7300000000000000000000000081528360601b60148201527f5af43d3d93803e603357fd5bf30000000000000000000000000000000000000060288201528460601b60358201526049810160495f82863c6029810151602983015114602082015160208401511416815183511416925050509392505050565b5f6040517f609a3d8160093d39f33d3d3d3d363d3d37606560353639366065013d7300000081528860601b601d8201527f5af43d3d93803e603357fd5bf30000000000000000000000000000000000000060318201528760601b603e8201528660601b60528201528560601b606682015284607a8201538360601b607b8201528260601b608f82015260a3815ff09998505050505050505050565b6040517ffd17aef900000000000000000000000000000000000000000000000000000000815233600482015273ffffffffffffffffffffffffffffffffffffffff88811660248301526fffffffffffffffffffffffffffffffff80891660448401526bffffffffffffffffffffffff88166064840152861660848301528b169063fd17aef99060a4015f604051808303815f87803b1580156136ab575f80fd5b505af11580156136bd573d5f803e3d5ffd5b50505050805f146136ea576136ea73ffffffffffffffffffffffffffffffffffffffff8a16338c84612ddc565b815f5b8181101561331d578973ffffffffffffffffffffffffffffffffffffffff166323b872dd338e888886818110613725576137256141d7565b6040517fffffffff0000000000000000000000000000000000000000000000000000000060e088901b16815273ffffffffffffffffffffffffffffffffffffffff9586166004820152949093166024850152506020909102013560448201526064015f604051808303815f87803b15801561379e575f80fd5b505af11580156137b0573d5f803e3d5ffd5b505050508060010190506136ed565b5f805f805f85875af1905080610b64576040517f08c379a000000000000000000000000000000000000000000000000000000000815260206004820152601360248201527f4554485f5452414e534645525f4641494c4544000000000000000000000000006044820152606401610dd3565b5f6040517fa9059cbb00000000000000000000000000000000000000000000000000000000815273ffffffffffffffffffffffffffffffffffffffff8416600482015282602482015260205f6044835f895af191505080601f3d1160015f5114161516156138a15750823b153d17155b80610d51576040517f08c379a000000000000000000000000000000000000000000000000000000000815260206004820152600f60248201527f5452414e534645525f4641494c454400000000000000000000000000000000006044820152606401610dd3565b5f61391283613b3e565b80156108b757506108b78383613bbd565b5f6040517f60a63d8160093d39f33d3d3d3d363d3d37607160353639366071013d7300000081528860601b601d8201527f5af43d3d93803e603357fd5bf30000000000000000000000000000000000000060318201528760601b603e8201528660601b60528201528560601b606682015284607a82015383607b8201528260601b609b82015260af815ff09998505050505050505050565b6040517ffd17aef900000000000000000000000000000000000000000000000000000000815233600482015273ffffffffffffffffffffffffffffffffffffffff88811660248301526fffffffffffffffffffffffffffffffff80891660448401526bffffffffffffffffffffffff88166064840152861660848301528b169063fd17aef99060a4015f604051808303815f87803b158015613a5b575f80fd5b505af1158015613a6d573d5f803e3d5ffd5b50505050805f14613a9a57613a9a73ffffffffffffffffffffffffffffffffffffffff8a16338c84612ddc565b811561311257604080516020810182525f815290517ff242432a00000000000000000000000000000000000000000000000000000000815273ffffffffffffffffffffffffffffffffffffffff8a169163f242432a91613b059133918f918991899190600401614326565b5f604051808303815f87803b158015613b1c575f80fd5b505af1158015613b2e573d5f803e3d5ffd5b5050505050505050505050505050565b5f613b69827f01ffc9a700000000000000000000000000000000000000000000000000000000613bbd565b15613bb1575f80613b9a847fffffffff00000000000000000000000000000000000000000000000000000000613be1565b91509150818015613ba9575080155b949350505050565b505f919050565b919050565b5f805f613bca8585613be1565b91509150818015613bd85750805b95945050505050565b7f01ffc9a7000000000000000000000000000000000000000000000000000000005f818152600483905290819060208260248188617530fa92505f511515601f3d11169150509250929050565b73ffffffffffffffffffffffffffffffffffffffff81168114613c4f575f80fd5b50565b5f60208284031215613c62575f80fd5b81356108b781613c2e565b7f4e487b71000000000000000000000000000000000000000000000000000000005f52602160045260245ffd5b60028110613c4f577f4e487b71000000000000000000000000000000000000000000000000000000005f52602160045260245ffd5b60208101613cdc83613c9a565b91905290565b5f805f60608486031215613cf4575f80fd5b8335613cff81613c2e565b92506020840135613d0f81613c2e565b929592945050506040919091013590565b5f8083601f840112613d30575f80fd5b50813567ffffffffffffffff811115613d47575f80fd5b6020830191508360208260051b8501011115613d61575f80fd5b9250929050565b5f805f8060608587031215613d7b575f80fd5b8435613d8681613c2e565b9350602085013567ffffffffffffffff811115613da1575f80fd5b613dad87828801613d20565b9094509250506040850135613dc181613c2e565b939692955090935050565b8015158114613c4f575f80fd5b5f8060408385031215613dea575f80fd5b8235613df581613c2e565b91506020830135613e0581613dcc565b809150509250929050565b5f8060408385031215613e21575f80fd5b8235613e2c81613c2e565b91506020830135613e0581613c2e565b803560038110613bb8575f80fd5b80356fffffffffffffffffffffffffffffffff81168114613bb8575f80fd5b6bffffffffffffffffffffffff81168114613c4f575f80fd5b5f805f805f805f805f806101208b8d031215613e9c575f80fd5b8a35613ea781613c2e565b995060208b0135613eb781613c2e565b985060408b0135613ec781613c2e565b9750613ed560608c01613e3c565b9650613ee360808c01613e4a565b955060a08b0135613ef381613e69565b9450613f0160c08c01613e4a565b935060e08b0135613f1181613c2e565b92506101008b013567ffffffffffffffff811115613f2d575f80fd5b613f398d828e01613d20565b915080935050809150509295989b9194979a5092959850565b5f805f805f805f805f6101208a8c031215613f6b575f80fd5b8935613f7681613c2e565b985060208a0135613f8681613c2e565b975060408a0135613f9681613c2e565b9650613fa460608b01613e3c565b9550613fb260808b01613e4a565b945060a08a0135613fc281613e69565b9350613fd060c08b01613e4a565b989b979a50959894979396929550929360e081013593506101000135919050565b5f6101608284031215614002575f80fd5b50919050565b5f60208284031215614018575f80fd5b813567ffffffffffffffff81111561402e575f80fd5b613ba984828501613ff1565b5f805f6060848603121561404c575f80fd5b833561405781613c2e565b9250602084013561406781613c2e565b9150604084013561407781613dcc565b809150509250925092565b5f60208284031215614092575f80fd5b5035919050565b5f805f80608085870312156140ac575f80fd5b84356140b781613c2e565b93506020850135925060408501356140ce81613c2e565b9396929550929360600135925050565b5f80604083850312156140ef575f80fd5b82356140fa81613c2e565b946020939093013593505050565b5f6101608284031215614119575f80fd5b6108b78383613ff1565b5f60208284031215614133575f80fd5b8151600481106108b7575f80fd5b7f4e487b71000000000000000000000000000000000000000000000000000000005f52601260045260245ffd5b5f60ff83168061418057614180614141565b8060ff84160691505092915050565b5f80604083850312156141a0575f80fd5b82516141ab81613dcc565b6020840151909250613e0581613e69565b5f602082840312156141cc575f80fd5b81516108b781613c2e565b7f4e487b71000000000000000000000000000000000000000000000000000000005f52603260045260245ffd5b602081528160208201525f7f07ffffffffffffffffffffffffffffffffffffffffffffffffffffffffffffff83111561423b575f80fd5b8260051b80856040850137919091016040019392505050565b5f60ff83168061426657614266614141565b8060ff84160491505092915050565b5f60208284031215614285575f80fd5b6108b782613e3c565b5f6020828403121561429e575f80fd5b6108b782613e4a565b5f602082840312156142b7575f80fd5b81356108b781613e69565b5f8083357fffffffffffffffffffffffffffffffffffffffffffffffffffffffffffffffe18436030181126142f5575f80fd5b83018035915067ffffffffffffffff82111561430f575f80fd5b6020019150600581901b3603821315613d61575f80fd5b73ffffffffffffffffffffffffffffffffffffffff8616815273ffffffffffffffffffffffffffffffffffffffff8516602082015283604082015282606082015260a060808201525f82518060a0840152806020850160c085015e5f60c0828501015260c07fffffffffffffffffffffffffffffffffffffffffffffffffffffffffffffffe0601f8301168401019150509695505050505050565b5f602082840312156143d1575f80fd5b5051919050565b5f602082840312156143e8575f80fd5b81516108b781613dcc56fea2646970667358221220aa73386cbda29f6c2480782cbd8fefe36733c621e01191cf4fb5af86692e368f64736f6c634300081a0033","linkReferences":{}},"methodIdentifiers":{"authAllowedForToken(address,address)":"d397516d","bondingCurveAllowed(address)":"a82719c8","callAllowed(address)":"1fba95e8","changeProtocolFeeMultiplier(uint256)":"9c3c11d2","changeProtocolFeeRecipient(address)":"514f0330","closeLock()":"d83ff79c","createPairERC1155ERC20((address,address,address,address,uint8,uint128,uint96,uint128,uint256,uint256,uint256))":"ea3ec18c","createPairERC1155ETH(address,address,address,uint8,uint128,uint96,uint128,uint256,uint256)":"8e0fabc5","createPairERC721ERC20((address,address,address,address,uint8,uint128,uint96,uint128,address,uint256[],uint256))":"96b182be","createPairERC721ETH(address,address,address,uint8,uint128,uint96,uint128,address,uint256[])":"82c1b8ff","depositERC1155(address,uint256,address,uint256)":"a9c25267","depositERC20(address,address,uint256)":"1cad5a40","depositNFTs(address,uint256[],address)":"2cdb394b","disableSettingsForPair(address,address)":"6c19cb6a","enableSettingsForPair(address,address)":"c2bcf599","erc1155ERC20Template()":"5240c830","erc1155ETHTemplate()":"ffb699ce","erc721ERC20Template()":"ca4b6eb8","erc721ETHTemplate()":"d245fde6","getPairNFTType(address)":"86aa8360","getPairTokenType(address)":"05070c69","getSettingsForPair(address)":"0b898493","isValidPair(address)":"9294118c","openLock()":"0e4860df","owner()":"8da5cb5b","protocolFeeMultiplier()":"1ce4c78b","protocolFeeRecipient()":"64df049e","routerStatus(address)":"a93ec68b","setBondingCurveAllowed(address,bool)":"4bf107c1","setCallAllowed(address,bool)":"ebd0f693","setRouterAllowed(address,bool)":"6cc88edb","settingsForCollection(address,address)":"a68e7bcb","settingsForPair(address)":"a01080cd","toggleSettingsForCollection(address,address,bool)":"9b395730","transferOwnership(address)":"f2fde38b","withdrawERC20ProtocolFees(address,uint256)":"cc5bc20b","withdrawETHProtocolFees()":"b483eddc"},"id":132}